:1070000039C0000052C0000050C000004EC0000057
:107010004CC000004AC0000048C0000046C000004C
:1070200044C0000042C0000040C00000C7C40000CF
:107030003CC000003AC0000038C0000036C000006C
:1070400034C0000032C0000062C300002EC0000047
:107050002CC000002AC0000028C0000026C000008C
:1070600024C0000022C0000020C000001EC000009C
:107070001CC0000011241FBECFEFD4E0DEBFCDBF87
:1070800011E0A0E0B1E0ECE8FEE702C005900D924F
:10709000AC38B107D9F711E0ACE8B1E001C01D92FE
:1070A000AD39B107E1F733D0EFC6AACF84E08093C2
:1070B000E9000DC08091E8008B778093E80003C061
:1070C0008EB3882359F08091E80082FFF9CF809138
:1070D000E80085FFEFCF8091F100089580E00895EA
:1070E00093E09093E9009091E80095FD0DC0909198
:1070F000E8009E779093E80003C09EB3992331F097
:107100009091E80090FFF9CF8093F10008952F92BD
:107110003F924F925F926F927F928F929F92AF9227
:10712000BF92CF92DF92EF92FF920F931F93DF9364
:10713000CF93CDB7DEB760970FB6F894DEBF0FBE22
:10714000CDBF84B714BE90916000986190936000A9
:107150001092600010928C0190E0FC01E270F070DF
:1071600081FD0BC0859194912FEF8F3F920729F0FD
:10717000E0918D01F0918E01099584B7877F84BFDE
:1071800088E10FB6F89480936000109260000FBE03
:1071900090E080E80FB6F8948093610090936100CE
:1071A0000FBE11E015BF82E085BFF9D310936F00C9
:1071B00083E080938100549A5C9A78947724739446
:1071C000DD246624B4E03B2EA3E05A2EBB24B39406
:1071D000F5E04F2EE1E12E2E79E0A72EE0E0F0E081
:1071E000659174917C876B878D2C7BC23092E9000E
:1071F0008091E80082FF4DC210928C0157DF182F5A
:10720000853419F410920F0103C0843519F44EDF50
:107210008DE017C28C34E1F38035D1F3843721F44B
:1072200084E45EDF80E00DC2813611F489E509C295
:10723000813411F53BDF182F39DF282F30E0220F82
:10724000331F442737FD4095542F110F18871F8295
:10725000EF81F885CF01AA2797FDA095BA2F282B9B
:10726000392B4A2B5B2B20938F0130939001409355
:10727000910150939201CCCF803711F483E5E1C1A5
:10728000833569F480E091E07C01D7018D917D0127
:1072900027DFB7E0EB16B1E0FB06B9F7D3C18635BF
:1072A00021F481E31DDF80E3CCC1833731F48AE828
:1072B00017DF85E915DF8EE1C4C18536E9F480E08A
:1072C00090E0DC01FC0150925700E89507B600FC05
:1072D000FDCF40925700E89507B600FCFDCF8058DF
:1072E0009F4FAF4FBF4F8030E0E79E07E0E0AE0713
:1072F000E0E0BE0739F78CCF8C3649F4D7DE8095B5
:10730000E1E0F0E0082EA0925700E89581CF8237A7
:1073100031F4E1E0F0E0A0925700849192C186340C
:1073200031F4E0E0F0E0A092570084918AC18E34FD
:1073300031F4E3E0F0E0A0925700849182C18135FE
:1073400031F4E2E0F0E0A092570084917AC18236F5
:1073500031F489E5C5DE80E0C3DE80E872C18234A5
:1073600019F0873609F0E6C0A1DEE82E9FDED82EA0
:107370009DDE982E8554823008F062C1EA8219821F
:107380002D2D30E069817A81262B372B173609F0B5
:107390004BC020925700E895DD2441C0E0908F015A
:1073A000F09090010091910110919201792D763425
:1073B000D9F4ED2DF0E0EE29FF2984912F87388B49
:1073C0008FDE2F853889DD2069F0D801C70102964C
:1073D000A11DB11D80938F0190939001A093910105
:1073E000B0939201DB2419C0D801C701B695A795C7
:1073F000979587952F87388B31D572DED801C701D5
:107400000296A11DB11D80938F0190939001A093CE
:107410009101B093920138892F8521503040211578
:10742000310509F0BBCF0EC180918F019091900181
:10743000A0919101B09192018B839C83AD83BE8317
:10744000992D963409F05FC0EB81FC815092570072
:10745000E89507B600FCFDCF56C0F92DF63459F576
:10746000DD2029F1E0908F01F090900100919101D1
:10747000109192011BDE8A8719868C2D90E0298558
:107480003A85822B932BF7010C01B0925700E895B7
:107490001124D801C7010296A11DB11D80938F014F
:1074A00090939001A0939101B093920102C0FEDDF0
:1074B000C82EDB2423C0E0908F01F0909001009152
:1074C00091011091920116950795F794E794EEDDDE
:1074D000682FC701CBD480918F0190919001A0912A
:1074E0009101B09192010296A11DB11D80938F016F
:1074F00090939001A0939101B09392012D853E85C8
:107500002150304002C0CC24DD243E872D876D857C
:107510007E856115710509F0A0CF792D763409F0CB
:1075200077CEEB81FC8140925700E89507B600FCCE
:10753000FDCF6ECE833469F4E0908F01F09090011E
:10754000B5DD90E0F7010C01B0925700E8951124E9
:107550005FCE8336A1F4E0908F01F090900100910E
:10756000910110919201A2DDF701E16090E00C0120
:10757000B0925700E8951124D801C70133C08D3669
:1075800059F4E0918F01F091900140925700E895F5
:1075900007B600FCFDCF3CCE823551F4E0918F015F
:1075A000F0919001E590F4908F2D9ADD8E2D49C0D9
:1075B000843421F5E0908F01F090900100919101C9
:1075C0001091920116950795F794E7946FDD682F57
:1075D000C7014CD480918F0190919001A0919101AD
:1075E000B09192010296A11DB11D80938F019093DD
:1075F0009001A0939101B09392010ACE8436F1F4E8
:10760000E0908F01F0909001009191011091920112
:10761000D801C701B695A795979587951FD460DDCA
:10762000D801C7010296A11DB11D80938F019093CF
:107630009001A0939101B093920104C08B3111F09D
:107640008FE34EDD5092E9009091E8008091E800D0
:107650008E778093E80095FF04C010C08EB3882316
:10766000C1F08091E80080FFF9CF8091E8008E772B
:107670008093E80003C08EB3882359F08091E8001E
:1076800080FFF9CF3092E9008091E8008B778093FA
:10769000E800C9D36394F62DF13011F4870C5C9A9D
:1076A000681409F45C98282D2F3F69F0882069F44C
:1076B000372D313051F080918C018F5F80938C0198
:1076C0007724739402C077247A9480918C018A3055
:1076D00040F06B857C858FEF6F3F780711F010923B
:1076E0000F0180910F01882309F080CD8091E00087
:1076F00081608093E0002CE088E190E00FB6F89480
:10770000A895809360000FBE20936000FFCF1F926A
:107710000F920FB60F9211248F939F938BB190E12C
:1077200089278BB99F918F910F900FBE0F901F905B
:10773000189582E061EC42E0CBD083E061E842E161
:10774000C7D084E060E842E1C3C080919501982FE2
:107750009F77913269F59BB120E192279BB9909177
:1077600096019032A1F0913219F5813A09F5809194
:10777000E800877F8093E80088E091E067E070E0B0
:10778000AED18091E8008B778093E8000895813234
:1077900079F48091E800877F8093E80088E091E0A9
:1077A00067E070E0F6D18091E8008E778093E80082
:1077B00008952F923F924F925F921B012C0107B6C2
:1077C00000FCFDCFF999FECF83E0F10180935700D3
:1077D000E89581E180935700E8955F904F903F9046
:1077E0002F9008952F923F924F925F921B012C0190
:1077F00007B600FCFDCFF999FECF85E0F10180933B
:107800005700E89581E180935700E8955F904F908D
:107810003F902F9008952F923F924F925F921B01BD
:107820002C0107B600FCFDCFF999FECF81E0F101F4
:107830000A0180935700E89511245F904F903F9084
:107840002F90089521E2FC01209357008491089520
:1078500029E0FC012093570084910895E1E0F0E0D5
:1078600089E0809357008491089507B600FCFDCF0E
:10787000F999FECF809599E0E1E0F0E0082E909331
:107880005700E8950895923049F0933061F09130B7
:1078900089F020E030E080E090E015C02EE330E099
:1078A00082E291E010C0882351F424E030E080E6C9
:1078B00091E009C022E130E080E191E004C026E2DD
:1078C00030E084E691E0FA0191838083C901089554
:1078D0008F708093E900EBEEF0E08081816080831F
:1078E000EDEEF0E010826093EC0040838091EE00BA
:1078F000881F8827881F08958091950187FF11C0F0
:1079000003C08EB38823B1F08091E80082FFF9CFE5
:107910008091E8008B778093E80008958EB38823E8
:1079200049F08091E80080FFF9CF8091E8008E77E0
:107930008093E80008953CD03ED08091D8008F77A6
:107940008093D8008091D80080688093D80080917F
:10795000D8008F7D8093D80084E089BD86E089BD02
:1079600009B400FEFDCF1EBA1092930180E060E0E2
:1079700042E0AEDF8091E1008E7F8093E100809154
:10798000E20081608093E2008091E2008860809351
:10799000E2008091E0008E7F8093E0000895E3E6AE
:1079A000F0E080818E7F808381E080939401C3CF5B
:1079B0001092E20008951092E10008951F920F9234
:1079C0000FB60F9211242F933F934F935F936F93B2
:1079D0007F938F939F93AF93BF93EF93FF93809188
:1079E000E10080FF16C08091E20080FF12C080910C
:1079F000E2008E7F8093E2008091E20080618093BC
:107A0000E2008091D80080628093D80019BC1EBA31
:107A100009D28091E10084FF2CC08091E20084FFB4
:107A200028C084E089BD86E089BD09B400FEFDCF91
:107A30008091D8008F7D8093D8008091E1008F7E67
:107A40008093E1008091E2008F7E8093E20080913C
:107A5000E20081608093E20080919301882321F409
:107A60008091E30087FF02C084E001C081E08EBB0B
:107A7000D9D18091E10083FF21C08091E20083FF92
:107A80001DC08091E100877F8093E10082E08EBB82
:107A9000109293018091E1008E7F8093E1008091AC
:107AA000E2008E7F8093E2008091E200806180930B
:107AB000E20080E060E042E00BDFB4D1FF91EF91A3
:107AC000BF91AF919F918F917F916F915F914F91F6
:107AD0003F912F910F900FBE0F901F901895282F58
:107AE000392FF90180919B0190919C01861797078E
:107AF00018F4BC0120E034C061157105D9F78091FC
:107B0000E8008E778093E800F5CF8EB38823E9F103
:107B10008530B9F18091E80083FD35C08091E8009F
:107B200082FD29C08091E80080FF1AC08091F20098
:107B300090E006C021912093F100615070400196C1
:107B40006115710519F088309105A0F321E08830A6
:107B5000910509F020E08091E8008E778093E8009D
:107B60006115710591F6222381F605C08EB3882335
:107B700061F0853061F08091E80082FFF7CF80E00E
:107B8000089583E0089581E0089582E0089583E0F8
:107B900008956115710511F51CC02EB3222389F1DA
:107BA000253059F12091E80023FD29C02091E800FB
:107BB00022FFF3CFE82FF92F07C08091F1008193C6
:107BC000CF016150704029F0CF012091F2002223B3
:107BD000A1F72091E8002B772093E800611571054B
:107BE000E1F605C08EB3882361F0853061F08091A5
:107BF000E80080FFF7CF80E0089583E0089581E0FA
:107C0000089582E0089583E008950F931F93DF9312
:107C1000CF9300D0CDB7DEB7E5E9F1E08091F10078
:107C2000819381E0ED39F807C9F78FDD8091E80095
:107C300083FFE3C08091950190919601953009F4FE
:107C40006CC0963040F4913069F1913070F093300F
:107C500009F0D3C027C0983009F4A2C0993009F4C4
:107C6000B1C0963009F0C9C07BC0803881F082383D
:107C700009F0C3C0809199018F708093E9009091C1
:107C8000EB0081E095FF80E01092E90001C080E008
:107C90009091E800977F9093E8008093F100109214
:107CA000F10089C0882319F0823009F0A6C08F71D5
:107CB000823009F0A2C080919701882341F520917C
:107CC00099012F7009F499C02093E9008091EB008D
:107CD00080FF1DC080919601833021F48091EB00DC
:107CE000806213C08091EB0080618093EB0081E0A3
:107CF00090E002C0880F991F2A95E2F78093EA006E
:107D00001092EA008091EB0088608093EB00109263
:107D1000E9008091E800877F51C0882309F06DC099
:107D2000109197011F770FB7F8948091E800877F33
:107D30008093E800E1DD8091E80080FFFCCF809136
:107D4000E3008078812B8093E30080688093E300D8
:107D5000112311F083E001C082E08EBB0FBF4DC044
:107D60008058823008F049C0809197019091980125
:107D700060919901AE014F5F5F4F85DDBC010097B7
:107D800009F43BC08091E800877F8093E8008981F7
:107D90009A81A5DE8091E8008B778093E8002DC062
:107DA000803859F58091E800877F8093E8008091C2
:107DB00093018093F1008091E8008E778093E80032
:107DC0009BDD1BC08823C9F4909197019230A8F4E1
:107DD0008091E800877F8093E800909393018CDD89
:107DE00080919301882321F48091E30087FF02C0F2
:107DF00084E001C081E08EBB9CDC8091E80083FFC1
:107E00000AC08091EB0080628093EB008091E800D3
:107E1000877F8093E8000F900F90CF91DF911F91A3
:107E20000F9108950895CF938EB38823A9F0809180
:107E3000E9008F709091EC0090FF02C0C0E801C093
:107E4000C0E0C82B1092E9008091E80083FF01C0D8
:107E5000DCDECF70C093E900CF910895F999FECF91
:107E600092BD81BDF89A992780B50895262FF9997A
:107E7000FECF1FBA92BD81BD20BD0FB6F894FA9A0D
:0C7E8000F99A0FBE01960895F894FFCF08
:107E8C004C554641434443000000000000000801EB
:107E9C001201100102000008EB034A20000100014E
:107EAC00000109023E0002010080320904000001B9
:107EBC000202010005240010010424020605240618
:107ECC000001070582030800FF09040100020A00F3
:107EDC0000000705040210000107058302100001D1
:107EEC0004030904260341005600520020004300FD
:107EFC0044004300200042006F006F0074006C00CF
:0C7F0C006F00610064006500720000005E
:107FA00008CC20CC38CC4ECC53CC58CC5ECC0895E9
:107FB00000000000000000000000000000000000C1
:107FC00000000000000000000000000000000000B1
:107FD0000000E6CFE6CFE6CFE6CFE6CFE6CFE6CFAE
:107FE000E6CFE5CFE4CFE3CFE2CF00700000C1CD14
:027FF000FBDCB8
:040000030000700089
:00000001FF
