:1000000018C1000032C1000030C100002EC1000044
:100010002CC100002AC1000028C1000026C1000038
:1000200024C1000022C1000020C100000C94EA0F8E
:100030001CC100001AC1000018C1000076C70000F2
:1000400014C1000012C1000010C100009FC10000D7
:100050000CC100000AC1000008C1000006C1000078
:1000600004C1000002C1000000C10000FEC0000089
:10007000FCC0000012011001FF000010EB0304217E
:1000800000020102030109022000010100C032093F
:1000900004000002FF0000000705830240000A0779
:1000A00005020240000A040309040C034100540045
:1000B0004D0045004C00000018034100560052005E
:1000C00049005300500020006D006B0049004900BA
:1000D00000001C03300030003000320030003000DF
:1000E00030003100320033003400350000000000E1
:1000F00009000A000A000B000C000D000D000E00A4
:100100000F0010001000120013001300140016005E
:100110001600180019001A001C001D001F00200006
:10012000220023002500270029002B002E0030008C
:100130003200340037003A003D00400043004600E2
:100140004A004E00520055005A005E0063006800ED
:100150006D00730078007E0084008B009100990090
:10016000A000A900B100B900C300CC00D600E10096
:10017000EC00F700040111011E012D013B014B01B0
:100180005B016C017D019101A501BA01CF01E6017E
:10019000FE01160231024C026A028802A802CA025B
:1001A000ED021103380360038B03B803E70318045F
:1001B0004B048104B904F50434057505B90501063D
:1001C0004E069D06EF064807A30704086508D008F9
:1001D0004009B6092B0AAB0A300BC30B510CEE0CCD
:1001E0008F0D400EF60EAF0F681047111412F51266
:1001F000ED13E214F015F9161B185C19911AE51BA2
:10020000251D831E0320AB21302332250F27F12823
:10021000F82A1A2D492FA1311434A1364539173C3B
:100220001A3F34426045DF48704C40004101424370
:10023000030011241FBECFEFD4E0DEBFCDBF11E01D
:10024000A0E0B1E0E6E4F6E202C005900D92A4362B
:10025000B107D9F711E0A4E6B1E001C01D92A737BC
:10026000B107E1F754D00C942113CACE9BB19F7E05
:10027000982B9BB9089584B7877F84BF88E10FB618
:10028000F89480936000109260000FBE269A2E981A
:10029000279A2F9890E080E80FB6F8948093610039
:1002A000909361000FBE549A5C980E94DB0F269ACF
:1002B000089580E1DBCF80E1D9CFCF9382E060E881
:1002C00042E30E94410FC82F83E061E842E30E94AD
:1002D000410F2C2F30E090E02823392320FF02C06B
:1002E00080E001C080E1C2DFCF9108958EB38430F9
:1002F00069F4A5D182E08093E9008091E80082FF53
:1003000005C080E1B3DF5FD080E0B0CF0895B3DFF8
:1003100052D080E1ABDF7894E9DF0E94EC12FCCF91
:10032000292F3327223029F0233041F0213029F5BD
:100330001FC080E290E0E6E8F0E023C0813059F091
:10034000813028F0823059F08330B9F40CC0E6EAED
:10035000F0E084910BC0EAEAF0E0849107C0E8EB9A
:10036000F0E0849103C0E2EDF0E0849190E009C0F8
:1003700082E190E0E4E7F0E004C080E090E0E0E0BB
:10038000F0E0DA011196FC93EE93089578941F92B1
:100390000F920FB60F9211248F938AB5882321F004
:1003A0008AB581508ABD01C015BC8F910F900FBED8
:1003B0000F901F9018958BE987BD82E084BD8093D4
:1003C0006E0030D1E2C50F931F93DF93CF930F924E
:1003D000CDB7DEB71091F10084E68ABD85E085BD1A
:1003E000143109F4CCC0153110F51A3009F4AEC03F
:1003F0001B3068F4143038F4123008F054C0113057
:1004000009F0D5C033C0163009F0D1C079C0113120
:1004100009F4B0C0123120F4103109F0C8C0A8C0EE
:10042000123109F4AFC0133109F0C1C0A5C01931B0
:1004300009F4ADC01A3168F4163109F4A0C01631C0
:1004400008F49AC0173109F4A2C0183109F0AFC0FE
:100450009BC01D3109F49EC01D3108F495C01035B4
:1004600009F49CC0113509F0A2C096C08091E80043
:100470008B778093E80083E08093E9008091EC0023
:1004800081608093EC001093F1001092F1008AE0FB
:100490008093F10080E091E06AE070E040E050E09D
:1004A0000E948B109AC00091F100123019F46091F3
:1004B000F10001C060E08091E8008B778093E80054
:1004C00083E08093E9008091EC0081608093EC00F0
:1004D0001093F100802F6983B3D06981123039F411
:1004E00081FF0CC01092F100802FBAD076C080FF3F
:1004F00005C01092F100802FABD06DC080EC6BC0B6
:1005000088E691E064E070E040E050E00E942B114A
:100510008091E8008B778093E80083E08093E90086
:100520008091EC0081608093EC0080916801909153
:100530006901A0916A01B0916B01B7FF03C081E02E
:100540008093670186E08093F1000FC08091E800FE
:100550008B778093E80083E08093E9008091EC0042
:1005600081608093EC001093F1001092F10035C08F
:1005700049D438C011D436C0812FB0D033C0812FB8
:10058000E4D130C0BBD32EC0812F7FD22BC0812FAE
:10059000DBD228C01FD326C033D724C061D722C0E6
:1005A0008091E8008B778093E8000E94740F80911F
:1005B000F2008034A9F38091E8008B778093E80003
:1005C00083E08093E9008091EC0081608093EC00EF
:1005D0001093F10089EC8093F1008091E8008E7710
:1005E0008093E80015BC0E94740F82E08093E900BC
:1005F0008091EC008E7F8093EC000F90CF91DF9183
:100600001F910F910895EBE0F1E09081891741F07F
:1006100091E0E632F90711F03396F7CFE0E0F0E031
:10062000CF010895CF93DF938EE9EDDFEC0180E0F9
:1006300090E00E9407138A83DF91CF910895089577
:10064000E2DF009719F0FC018181089580E00895B0
:10065000DADF009719F0FC018281089580E00895A7
:100660001F93DF93CF930F92CDB7DEB7182F698317
:10067000CADFFC016981009739F062831E3921F4D9
:1006800080E090E00E940F130F90CF91DF911F91B7
:1006900008959C01832F922F089590912901992309
:1006A00029F08EBD0DB407FEFDCF0895D7C49091FB
:1006B0002901992331F08EBD0DB407FEFDCF8EB513
:1006C0000895CCC480912901882331F01EBC0DB45B
:1006D00007FEFDCF8EB5089580E0C0C42F923F92F3
:1006E0004F925F926F927F928F929F92AF92BF9242
:1006F000CF92DF92EF92FF920F931F93DF93CF93EE
:10070000CDB7DEB7C950D1400FB6F894DEBF0FBEEB
:10071000CDBF182FCE01019669E070E040E050E0B7
:100720000E94DB1089819A81B4DFBC019A8389839E
:1007300081E06130780788F08091E8008B778093C2
:10074000E80083E08093E9008091EC008160809371
:10075000EC001093F10080ECD7C0CE010A9640E087
:1007600050E00E94DB1089819A810A968F73907005
:10077000009739F48091E8008B778093E8000E941D
:10078000740F8091E8008B778093E80083E080937A
:10079000E9008091EC0081608093EC00133111F44A
:1007A000988401C09984209068013090690140903C
:1007B0006A0150906B019AE0A92EB12CAC0EBD1EBF
:1007C000CC24DD24EE24FF2488E0882E7724739443
:1007D00064C0F50161905F010B81809167018823FE
:1007E00019F093D4109267018D8157DF80916901D0
:1007F00054DF8091680151DF862D4FDF133119F4EA
:100800008D8188258D83E114F10481F4691471F0E0
:10081000C0FE05C0133119F48F81886002C08F813A
:10082000877F8F83E0906801F090690100FD11C01F
:10083000E114F10421F403FD02C0097F0260802F5E
:10084000B701492D2C810F8169D4882369F5EE24E5
:10085000FF24C0FC02C01531E9F480916801909139
:100860006901A0916A01B0916B010196A11DB11DB2
:100870008093680190936901A0936A01B0936B0122
:10088000133141F4A070B0700097A105B10511F4C7
:10089000709267010894C11CD11C89819A81C81685
:1008A000D90608F496CF80E09B8197FF2BC08E81FC
:1008B000F4DE832DF2DE822DF0DE80E0EEDE8B8131
:1008C00085FF06C0E114F10419F48F7C80618B83ED
:1008D0008B81B701492D2C810F8120D4133191F4E4
:1008E000209168013091690140916A0150916B013A
:1008F00040705070211531054105510519F491E002
:10090000909367011093F1008093F1008091E800CB
:100910008E778093E800C75FDE4F0FB6F894DEBF96
:100920000FBECDBFCF91DF911F910F91FF90EF9040
:10093000DF90CF90BF90AF909F908F907F906F90FF
:100940005F904F903F902F900895DF92EF92FF922B
:100950000F931F93DF93CF9300D00F92CDB7DEB7E5
:10096000F82ECE01019663E070E040E050E00E9476
:10097000DB1089819A818DDE9A8389838091E800DA
:100980008B778093E80083E08093E9008091EC000E
:1009900081608093EC00F092F1001092F10000E091
:1009A00010E028E0D22EEE24E3944AC08091670143
:1009B000882319F0AAD3109267018B816EDE809193
:1009C00069016BDE8091680168DE7CDE8093F10056
:1009D0008091E80085FD07C08091E8008E778093C4
:1009E000E8000E94740F8F2D843119F48B818D25BE
:1009F0008B8300FD03C08F2D863101F520916801A6
:100A00003091690140916A0150916B012F5F3F4F16
:100A10004F4F5F4F209368013093690140936A0103
:100A200050936B018F2D863149F040705070211525
:100A300031054105510511F4E09267010F5F1F4F29
:100A400089819A810817190708F4B0CF1092F10034
:100A50009091E8008091E8008E778093E80095FD02
:100A600009C00E94740F8091E8008E778093E8009F
:100A70000E94740F0F900F900F90CF91DF911F91F4
:100A80000F91FF90EF90DF900895BF92CF92DF9289
:100A9000EF92FF920F931F93DF93CF93CDB7DEB703
:100AA00029970FB6F894DEBF0FBECDBFB82ECE018A
:100AB000059665E070E040E050E00E94DB10809118
:100AC000E8008B778093E80083E08093E9008091D1
:100AD000EC0081608093EC008E010A5F1F4F7E0165
:100AE0000894E11CF11C3AE0C32ED12CCC0EDD1E83
:100AF000F80181918F01DBDDF70181937F010C15F6
:100B00001D05B1F7B092F1001092F1008D81FE0148
:100B1000E80FF11D80818093F1001092F100809127
:100B2000E8008E778093E80029960FB6F894DEBF30
:100B30000FBECDBFCF91DF911F910F91FF90EF902E
:100B4000DF90CF90BF900895DF92EF92FF920F93C6
:100B50001F93DF93CF9300D000D0CDB7DEB7D82E50
:100B60008E010F5F1F4FC80164E070E040E050E06D
:100B70000E94DB108091E8008B778093E80083E08F
:100B80008093E9008091EC0081608093EC0045E067
:100B9000E42EF12CEC0EFD1EF80181918F017DDD1C
:100BA0000E151F05C9F7D092F1001092F1001092B6
:100BB000F1008091E8008E778093E8000F900F900D
:100BC0000F900F90CF91DF911F910F91FF90EF90B9
:100BD000DF900895EF92FF920F931F93DF93CF93CF
:100BE000CDB7DEB7C250D1400FB6F894DEBF0FBE0E
:100BF000CDBFCE01019663E070E040E050E00E947E
:100C0000DB108E010C5F1F4F698170E0C80140E06E
:100C100050E00E94DB108091E8008B778093E80021
:100C200083E08093E9008091EC0081608093EC0088
:100C30008DE18093F1001092F100FF240BC08981B7
:100C4000F81628F4F801EF0DF11D808101C080E055
:100C500024DDF3948B81F81690F3EE248E010C5F63
:100C60001F4F19C08981F81638F4F801EF0DF11DF6
:100C7000F39480811CDD01C025DD8093F10080911B
:100C8000E80085FD07C08091E8008E778093E8003A
:100C90000E94740FE3948A81E81620F31092F10009
:100CA0009091E8008091E8008E778093E80095FDB0
:100CB00009C00E94740F8091E8008E778093E8004D
:100CC0000E94740FCE5FDE4F0FB6F894DEBF0FBEEA
:100CD000CDBFCF91DF911F910F91FF90EF900895BD
:100CE00006C0EFE9FFE03197F1F700C0000088236C
:100CF00021F09AB581509923A1F70895EF92FF92C0
:100D00000F931F93DF93CF9300D000D000D0CDB7C7
:100D1000DEB7CE01019666E070E040E050E00E9450
:100D2000DB108091E8008B778093E80083E080936C
:100D3000E9008091EC0081608093EC008E010D5FF2
:100D40001F4F57E0E52EF12CEC0EFD1EF8018191AE
:100D50008F01A3DC0E151F05C9F78A81882321F4B2
:100D60008981BEDF80E001C0B2D192E19093F100B1
:100D70008093F1008091E8008E778093E8002696BA
:100D80000FB6F894DEBF0FBECDBFCF91DF911F919C
:100D90000F91FF90EF9008950F931F93DF93CF93E0
:100DA00000D0CDB7DEB7CE01019662E070E040E042
:100DB00050E00E94DB1008EE10E0F80180818B7794
:100DC000808383E08093E900ECEEF0E08081816035
:100DD0008083898185DF80E06AD1EBD08A8180DFE2
:100DE000E1EFF0E081E180831082F80180818E776D
:100DF000808380E0DED10F900F90CF91DF911F9123
:100E00000F9108958F929F92AF92BF92CF92DF92EF
:100E1000EF92FF920F931F93DF93CF93CDB7DEB77F
:100E20002F970FB6F894DEBF0FBECDBFCE0105964B
:100E30006BE070E040E050E00E94DB108091E80041
:100E40008B778093E80083E08093E9008091EC0049
:100E500081608093EC0010926801109269011092F9
:100E60006A0110926B0181E0A4D18F8139DFCDD06E
:100E700081E01DD18E8134DF7CE0C72ED12CCC0ED9
:100E8000DD1E5E010894A11CB11C60E1862E912C30
:100E90008C0E9D1E1EC0898523DFF80181918F0174
:100EA00006DCF70181937F0108151905A1F78B85F1
:100EB0008823D9F0FE01E80FF11D90818A859817EB
:100EC000A1F080E0F4D08E810BDF81E0F0D08E8144
:100ED00007DF8885982F91509887882341F08AB53D
:100EE000882329F086017501D6CF80E001C080EC0F
:100EF00090E19093F1008093F1008091E8008E776B
:100F00008093E8002F960FB6F894DEBF0FBECDBFDA
:100F1000CF91DF911F910F91FF90EF90DF90CF90D5
:100F2000BF90AF909F908F9008951F920F920FB631
:100F30000F9211248F93199908C08091640187FF43
:100F400002C02A9A1BC02A9819C080916401880F98
:100F50008093640180916501815080936501809147
:100F60006501882321F41092810082E086BB1B9BDF
:100F700005C080916401816080936401199A8F910A
:100F80000F900FBE0F901F9018953E9A10926F0011
:100F9000109285001092840081E090E09093890087
:100FA0008093880080E48093800089E080938100B2
:100FB000089580912901882349F084B1897F84B9FB
:100FC00085B1867F85B91CBC1DBC089584B1897F1D
:100FD00084B985B1867F85B9D8CF92E090936F00B0
:100FE000109285001092840090E0880F991F8E5116
:100FF0009F4FFC0125913491309389002093880004
:101000001092800010928100089588E921DB8730DA
:10101000E0F491E090932901E82FF0E0E65DFD4FC8
:10102000E491E061209A289A84B1866084B923987B
:101030002B9AE6FF03C08DB5816002C08DB58E7F0F
:101040008DBD2098E064ECBD08951092290194B103
:10105000966094B995B1996095B9BFCF80936401BA
:1010600088E0809365018091640187FF02C02A9A1D
:1010700001C02A9810928500109284008AE0809323
:10108000810080916501882319F08AB58823C9F70A
:101090001092810080916401089590912901992313
:1010A00029F08EBD0DB407FEFDCF0895D7CF88235C
:1010B00031F0249A8EE9CCDA882339F404C08EE921
:1010C000C7DA882311F02C9A08952C98089580EFA0
:1010D000E4DF80E0E2DF80E0E0DF80912901882327
:1010E00031F01EBC0DB407FEFDCF8EB502C080E00E
:1010F000B5DF80FF03C08AB5882349F78AB5882306
:1011000011F080E0089581E808958DE4C6DF80E065
:10111000C4DF80916A01C1DF80E0BFCFFF920F93EF
:101120001F93CF93DF93EB01142F682F70E06E773E
:101130006830710591F1693071053CF462307105D8
:1011400069F06430710559F50CC06032710549F0E1
:101150006034710511F16031710509F5822FC0DD30
:101160001EC0FD2E802F99DF8F2D97DF8C2F95DFEE
:1011700080912901882331F01EBC0DB407FEFDCFFC
:101180008EB502C080E06ADF811719F48AB5882322
:1011900049F78AB5882329F002C099DF03C080E0AF
:1011A00001C080E8A895DF91CF911F910F91FF902A
:1011B0000895882319F085B18F7302C085B1806CC2
:1011C00085B908959B01AC01652F922F272F782FA9
:1011D000822F08959C01832F922F0895AF92BF9282
:1011E000CF92DF92EF92FF920F931F93DF93CF93F3
:1011F000CDB7DEB7C850D1400FB6F894DEBF0FBEF2
:10120000CDBFCE01019668E070E040E050E0D3D75A
:101210006B817C818D819E81D5DF6B837C838D8307
:101220009E838F819885D6DFBC0198878F83CE01FE
:10123000099640E050E0BFD78F81988509968F735B
:101240009070009731F48091E8008B778093E800EC
:101250004BD68091E8008B778093E80083E0809301
:10126000E9008091EC0081608093EC008091660140
:101270008823A1F5298121502630A0F430E0F9011E
:10128000E65CFE4F9081F901E05CFE4F8081F90140
:10129000EA5BFE4F6081245B3E4FF90120812223EF
:1012A00099F003C066E283E29EE2EB80FC800D8150
:1012B0001E81AF80B884492F2A8199E0C92ED12C94
:1012C000CC0EDD1E07D412C02B813C814D815E8186
:1012D000892FBA01A9012985D9D308C04F81588522
:1012E0008B819C81BE01675F7F4F75D5882311F08C
:1012F00080E001C083E090E59093F10094E090934A
:10130000F1008093F1008091E8008E778093E800EF
:10131000C85FDE4F0FB6F894DEBF0FBECDBFCF91D2
:10132000DF911F910F91FF90EF90DF90CF90BF90D2
:10133000AF900895DF93CF93CDB7DEB7C750D140BC
:101340000FB6F894DEBF0FBECDBFCE01019667E0A9
:1013500070E040E050E02FD76A817B818C819D81D5
:1013600031DF6A837B838C839D838E819F8132DF13
:101370009F838E838091E8008B778093E80083E0E1
:101380008093E9008091EC0081608093EC00809173
:1013900066012E813F81AE01485F5F4F882331F4A3
:1013A0006A817B818C819D8137D305C08A819B8135
:1013B000BA01A901E3D4882311F080E001C083E0E1
:1013C00090E59093F10095E09093F1008093F10007
:1013D000882339F46E817F81CE01089640E050E089
:1013E0009AD68091E8008E778093E800C95FDE4F3F
:1013F0000FB6F894DEBF0FBECDBFCF91DF91089539
:10140000DF93CF930F92CDB7DEB7CE01019661E0A7
:1014100070E040E050E0CFD68091E8008B77809379
:10142000E80083E08093E9008091EC008160809384
:10143000EC0089818093660181E58093F1008981C8
:10144000813011F080E001C080EC8093F100809148
:10145000E8008E778093E8000F90CF91DF91089598
:10146000DF93CF93CDB7DEB729970FB6F894DEBFE1
:101470000FBECDBF8091F100843009F495C0853056
:1014800048F4823089F1833008F04BC0813009F094
:1014900032C10AC0863009F48BC0863008F486C099
:1014A000873009F028C1CCC08091E8008B77809309
:1014B000E80083E08093E9008091EC0081608093F4
:1014C000EC0080916601882311F422D205C082309D
:1014D00011F40BD401C080E090E59093F10091E00D
:1014E0009093F100892700C18091E8008B77809369
:1014F000E80083E08093E9008091EC0081608093B4
:10150000EC0080916601882311F444D201C02BD4F1
:1015100080E58093F10082E08093F1001092F10069
:10152000E5C0CE01059665E070E040E050E043D6AE
:101530006E817F818885998545DE6E837F8388876C
:1015400099878091E8008B778093E80083E080930F
:10155000E9008091EC0081608093EC00809166014D
:10156000ED81882379F4E150E83028F4F0E0EE5C76
:10157000FE4F808101C080E04E815F816885798562
:1015800010D308C0E13011F480E101C084E16E8124
:101590007F815CD4882311F080E001C083E090E576
:1015A0009093F10093E09EC019DEA5C0C3DEA3C0F6
:1015B000CE01059661E070E040E050E0FCD58091FE
:1015C000E8008B778093E80083E08093E9008091C6
:1015D000EC0081608093EC0080916601882391F497
:1015E000ED81E150E23028F4F0E0EE5AFE4F8081C8
:1015F00001C088E7BE016F5F7F4FD7D1882321F0FC
:1016000080E003C081E001C083E090E59093F100A9
:1016100096E09093F1008093F100882309F066C072
:1016200089819A81AB81BC81CD01AA27BB27809398
:10163000F10089819A818093F100892F992754C004
:101640008091F100833061F1843028F4813041F0E1
:101650008230B1F51AC0843041F1853089F52AC055
:101660002091F100B22F2091F100A22F2091F100E2
:10167000922F2091F100822F80932A0190932B01C9
:10168000A0932C01B0932D0119C02091F100922F4D
:101690002091F100822F90932F0180932E010EC094
:1016A0008091F1008093300109C08091F100809316
:1016B000310104C08091F1008091F10080E001C00F
:1016C00081E09091E8009B779093E80093E09093FD
:1016D000E9009091EC0091609093EC0090E590937C
:1016E000F10097E09093F1008093F1008091E80081
:1016F0008E778093E80029960FB6F894DEBF0FBE70
:10170000CDBFCF91DF9108954D99FECF4D9BFECF78
:101710004D99FECF5B9A539A8091C9008F7E80933A
:10172000C9008091C90088608093C90081E08093DE
:101730006C0108958091C80086FFFCCF8091C8009D
:1017400080648093C8008091C900877F8093C9001E
:101750008091C90080618093C90053985B98109272
:101760006C01089580916C01882309F0E3DF80EC1F
:101770008093C8001092C9001092CA008AB1877D78
:101780008AB98BB1837D8BB9089580916C018823D0
:1017900009F0D0DF8091C800806C8093C80010925F
:1017A000C9001092CA008AB1877D8AB98BB1837D46
:1017B0008BB924982C980895DF93CF930F92CDB7CF
:1017C000DEB790916C01992319F489839DDF89819B
:1017D0009091C80095FFFCCF9091C80090649093C1
:1017E000C8008093CE000F90CF91DF910895809133
:1017F0006C01882309F09EDF8091C80087FD03C03B
:101800008AB58823C9F78091CE00089580916C0134
:10181000882309F479DF8CE04D99FECF4D9BFECFF4
:101820004D99FECF8150C1F7089510926C01249A12
:101830002C9885E08A95F1F700008AB188628AB910
:1018400052988FE190E09093CD008093CC0088E097
:101850008093C9008FE68093CA00D8DFD7CF10925B
:101860006C018AB188628AB952985B9A85E08A9540
:10187000F1F700008FE190E09093CD008093CC00D1
:1018800088E08093C9008FE68093CA00BFDFBECF97
:10189000EF92FF920F931F937B018C01862F8CDFB9
:1018A0008F2D8ADF802F88DF812F86DF1F910F9198
:1018B000FF90EF900895682F70E080E090E0209115
:1018C0002A0130912B0140912C0150912D01622B66
:1018D000732B842B952BDCCF80E86EDF88DF9AB5E5
:1018E000992321F081FFF8CF81E0089580E00895E9
:1018F0008BE662DF8FE0DFDF80E25EDF78DF9AB5C4
:10190000992321F087FDF8CF81E0089580E00895C4
:10191000CF92DF92EF92FF920F931F93DF93CF93BB
:10192000CDB7DEB728970FB6F894DEBF0FBECDBF98
:1019300096DF81EC41DF89E53FDF82EC3DDF82E02D
:101940003BDF80EE39DF8E01075F1F4F7E01089479
:10195000E11CF11C6701D601E4E5F1E088E00190AB
:101960000D928150E1F7F80182918F0125DF0E156C
:101970001F0589F7B1DF28960FB6F894DEBF0FBEBA
:10198000CDBFCF91DF911F910F91FF90EF90DF902E
:10199000CF900895A1DF81EC0FDF80E00DDF81E8BB
:1019A0000BDF25DF8823B9F7DDCE1F93CF93DF93BD
:1019B000182FEB01188219821A821B8299DF882363
:1019C00031F18CE4F9DE8AE076DF812FF5DE8CE4FC
:1019D000F3DE8BE070DF81E0EFDE7EDF8823B9F09D
:1019E00087DF8823A1F08BE6E7DE84E064DF80EA0E
:1019F000E3DE82E0E1DE84E2DFDEF9DE8883F7DE2B
:101A00008983F5DE8A839AB581E0992309F480E021
:101A1000DF91CF911F910895CF92DF92EF92FF92C5
:101A20000F931F93CF93DF936B017C018A01E90130
:101A30005FDF882309F18CE4BFDE8AE03CDF83E4CA
:101A4000BBDE8BE6B9DEC701B60122DF80EAB4DE79
:101A50008C2F8150B1DE84E2AFDE04C0C8DEF80115
:101A600081938F01209721F08AB521978823B1F7C0
:101A70009AB581E0992309F480E0DF91CF911F911D
:101A80000F91FF90EF90DF90CF900895EF92FF922B
:101A90000F931F93CF93DF93C82F7A018B01D22F1F
:101AA00027DF882379F08CE487DE8AE004DF8C2F3F
:101AB00083DE8CE481DEC801B701EADE8D2F7CDE97
:101AC00081E001C080E0DF91CF911F910F91FF90E5
:101AD000EF9008957F928F929F92AF92BF92CF9294
:101AE000DF92EF92FF920F931F93CF93DF93882E95
:101AF000962E742EE601C22E20FF10C0F9DE882338
:101B000009F440C08CE458DE8AE0D5DE892D54DE2D
:101B10008CE452DE8BE0CFDE81E04EDEA114B10416
:101B2000E9F0E6DE882371F18CE446DE8AE0C3DE6C
:101B3000882D42DE8BE640DEC801B701A9DE80EACF
:101B40003BDE8A2D815038DE84E636DE899134DE34
:101B50000894A108B108A114B104C1F7C1FE10C0D6
:101B6000C7DE882379F08CE427DE8AE0A4DE872DA7
:101B700023DE8CE421DEC801B7018ADE80E01CDEB2
:101B800081E001C080E0DF91CF911F910F91FF9024
:101B9000EF90DF90CF90BF90AF909F908F907F900D
:101BA0000895EF92FF920F931F93CF93C82F7A015E
:101BB0008B019EDE882309F457C0C03431F48CE4D5
:101BC000FBDD8AE078DE80E439C0C03309F03DC037
:101BD0008CE4F2DD8AE06FDE86E3EEDD8CE4ECDDA2
:101BE0008BE069DE81E0E8DD83DE882309F43CC018
:101BF0008CE4E2DD8AE05FDE83E3DEDD8BE6DCDDC4
:101C0000C801B70145DE80EAD7DD80912E01815001
:101C1000D3DD84E6D1DDC0E003C080E0CDDDCF5F61
:101C20002C2F30E080912E0190912F012817390739
:101C3000A0F38CE4C1DD8AE03EDE80E3BDDD8CE410
:101C4000BBDD8BE038DE81E00CC08CE4B5DD8AE0E2
:101C500032DE8C2FB1DD8CE4AFDDC801B70118DEB8
:101C600080E0AADD39DE01C080E0CF911F910F91A5
:101C7000FF90EF900895282F2F70206990E08073D7
:101C80009070880F991F822B97CDCF93DF93EC0133
:101C900088E692DD8C2F90DD89E68EDD8D2F8CDD40
:101CA000DF91CF91089580E887DDA1DD9AB5992372
:101CB00021F081FFF8CF81E0089580E008958091C0
:101CC0003101282F2F70206190E080739070880F71
:101CD000991F822B71DD8BDD9AB5992321F087FD49
:101CE000EECF81E0089580E00895CF92DF92EF92E9
:101CF000FF920F931F93DF93CF93CDB7DEB7289753
:101D00000FB6F894DEBF0FBECDBF8FDD82EC54DD81
:101D100082E052DD80EE50DD8E01075F1F4F7E01B5
:101D20000894E11CF11C6701D601ECE5F1E088E0C4
:101D300001900D928150E1F7F80182918F013CDD15
:101D40000E151F0589F7AFDF28960FB6F894DEBF92
:101D50000FBECDBFCF91DF911F910F91FF90EF90FC
:101D6000DF90CF9008959FDF80EC26DD80E024DDBA
:101D700081E822DD3CDD8823B9F707CDEF92FF92A1
:101D80000F931F93CF93DF938C01EB017A0197DFC1
:101D90008823C9F0809130016EDF80E00DDDC8013D
:101DA00074DF04C084E208DD22DD8993E114F104CC
:101DB00031F08AB50894E108F108882399F79AB5BB
:101DC00081E0992309F480E0DF91CF911F910F9179
:101DD000FF90EF900895EF92FF920F931F93CF9390
:101DE000DF938C01EB017A016ADF882339F1E0FE91
:101DF00008C0FE01EE0DFF1D8FEF80830894E11CEB
:101E0000F11C8091300137DF8DE1D6DCC8013DDF68
:101E100010C055DF882391F084E6CEDC8881CCDCCD
:101E200084E6CADC89812296C7DC8EEF9FEFE80E3C
:101E3000F91EE114F10469F781E001C080E0DF914F
:101E4000CF911F910F91FF90EF9008951F93CF9323
:101E5000DF93182FEB0133DF882371F0809130017D
:101E60000ADF812FA9DCCE0181600FDF80E6A4DCD0
:101E700080E0A2DC24DF01C080E0DF91CF911F91E0
:101E800008958F708093E900EBEEF0E0808181602F
:101E90008083EDEEF0E010826093EC00408380914F
:101EA000EE00881F8827881F089580916F0187FFA3
:101EB00011C003C08EB38823B1F08091E80082FF87
:101EC000F9CF8091E8008B778093E80008958EB376
:101ED000882349F08091E80080FFF9CF8091E800E5
:101EE0008E778093E80008958091E4009091E5005A
:101EF00044E62091EC0020FF25C02091E80020FD61
:101F000015C02EB32223A1F02530A1F02091EB00C3
:101F100025FD12C02091E4003091E5002817390713
:101F200041F3442359F04150C901E3CF80E00895C3
:101F300082E0089583E0089581E0089584E00895A3
:101F400080E008952091E80022FFDBCFF9CF3CD05C
:101F50003ED08091D8008F778093D8008091D800B0
:101F600080688093D8008091D8008F7D8093D800BE
:101F700084E089BD86E089BD09B400FEFDCF1EBAAC
:101F800010926D0180E060E042E17BDF8091E10032
:101F90008E7F8093E1008091E20081608093E20077
:101FA0008091E20088608093E2008091E0008E7F63
:101FB0008093E0000895E3E6F0E080818E7F8083E7
:101FC00081E080936E01C3CF1092E20008951092D9
:101FD000E10008951F920F920FB60F9211242F93D4
:101FE0003F934F935F936F937F938F939F93AF93A1
:101FF000BF93EF93FF938091E10082FF0AC080912D
:10200000E20082FF06C08091E1008B7F8093E100B7
:10201000E2D28091E10080FF17C08091E20080FF52
:1020200013C08091E2008E7F8093E2008091E200F5
:1020300080618093E2008091D80080628093D80014
:1020400019BC1EBA0E945B018091E10084FF2DC083
:102050008091E20084FF29C084E089BD86E089BDCB
:1020600009B400FEFDCF8091D8008F7D8093D80009
:102070008091E1008F7E8093E1008091E2008F7E6D
:102080008093E2008091E20081608093E200809181
:102090006D01882321F48091E30087FF02C084E072
:1020A00001C081E08EBB0E9459018091E10083FF55
:1020B00021C08091E20083FF1DC08091E100877FF5
:1020C0008093E10082E08EBB10926D018091E1006F
:1020D0008E7F8093E1008091E2008E7F8093E2000A
:1020E0008091E20080618093E20080E060E042E164
:1020F000C8DE71D2FF91EF91BF91AF919F918F9107
:102100007F916F915F914F913F912F910F900FBEF3
:102110000F901F901895BF92CF92DF92EF92FF928F
:102120000F931F93CF93DF937C01EB018A01DCDED9
:10213000B82E8823A9F50115110539F0F801208181
:102140003181C21BD30BE20EF31ECC24DD2424C04C
:102150008091E80085FD17C08091E8008E7780931C
:10216000E8003AD20115110551F0F8018081918102
:102170008C0D9D1D9183808325E0B22E11C0B4DEAD
:10218000882351F00CC0F70181917F018093F10009
:1021900021970894C11CD11C2097D1F601C0B82EFC
:1021A0008B2DDF91CF911F910F91FF90EF90DF90DA
:1021B000CF90BF900895BF92CF92DF92EF92FF929F
:1021C0000F931F93CF93DF937C01EB018A018CDE89
:1021D000B82E8823A9F50115110539F0F8012081E1
:1021E0003181C21BD30BE20EF31ECC24DD2424C0AC
:1021F0008091E80085FD17C08091E8008B7780937F
:10220000E800EAD10115110551F0F80180819181B2
:102210008C0D9D1D9183808345E0B42E11C064DE3A
:10222000882351F00CC08091F100F70181937F0168
:1022300021970894C11CD11C2097D1F601C0B82E5B
:102240008B2DDF91CF911F910F91FF90EF90DF9039
:10225000CF90BF900895BF92CF92DF92EF92FF92FE
:102260000F931F93CF93DF936C01EB017A013CDE58
:10227000B82E8823D9F58E01015010400C0D1D1D7C
:10228000E114F10439F0F70120813181C21BD30B35
:10229000021B130BCC24DD2425C08091E80085FDB2
:1022A00017C08091E8008B778093E80095D1E11406
:1022B000F10451F0F701808191818C0D9D1D918376
:1022C000808355E0B52E12C00FDE882359F00DC073
:1022D0008091F100F801808301501040219708940B
:1022E000C11CD11C2097C9F601C0B82E8B2DDF91DF
:1022F000CF911F910F91FF90EF90DF90CF90BF9003
:10230000089520917501309176012617370718F44A
:10231000B90140E038C061157105D9F72091E80096
:102320002E772093E800F5CF2EB3222309F440C086
:102330002530D1F12091E80023FD38C02091E8003C
:1023400022FD2CC02091E80020FF1DC02091F2004A
:1023500030E009C0FC0144914093F10001966150C6
:1023600070402F5F3F4F6115710519F02031310525
:1023700088F341E02031310509F040E02091E80088
:102380002E772093E8006115710571F6442361F6FC
:1023900005C08EB3882361F0853061F08091E8003C
:1023A00082FFF7CF80E0089583E0089581E00895EB
:1023B00082E0089583E008950F931F93DF93CF93F6
:1023C00000D0CDB7DEB7EFE6F1E08091F100819368
:1023D00081E0E737F807C9F7FED08091E80083FF76
:1023E000E5C080916F0190917001953009F46CC047
:1023F000963040F4913069F1913070F0933009F0EB
:10240000D5C027C0983009F4A3C0993009F4B2C0F0
:10241000963009F0CBC07BC0803881F0823809F05B
:10242000C5C0809173018F708093E9009091EB009B
:1024300081E095FF80E01092E90001C080E090917A
:10244000E800977F9093E8008093F1001092F100EC
:102450008AC0882319F0823009F0A8C08F718230B9
:1024600009F0A4C080917101882341F52091730186
:102470002F7009F49BC02093E9008091EB0080FF4E
:102480001DC080917001833021F48091EB00806247
:1024900013C08091EB0080618093EB0081E090E0BD
:1024A00002C0880F991F2A95E2F78093EA001092E4
:1024B000EA008091EB0088608093EB001092E900C5
:1024C0008091E800877F52C0882309F06FC0109187
:1024D00071011F770FB7F8948091E800877F809390
:1024E000E800E3DC8091E80080FFFCCF8091E3000E
:1024F0008078812B8093E30080688093E300112330
:1025000011F083E001C082E08EBB0FBF4FC0805846
:10251000823008F04BC080917101909172016091FE
:102520007301AE014F5F5F4F0E949001BC010097A5
:1025300009F43CC08091E800877F8093E80089819E
:102540009A81DFDE8091E8008B778093E8002EC0CF
:10255000803861F58091E800877F8093E800809162
:102560006D018093F1008091E8008E778093E80000
:102570009CDC1CC08823D1F4909171019230B0F49E
:102580008091E800877F8093E80090936D018DDC57
:1025900080916D01882321F48091E30087FF02C0C0
:1025A00084E001C081E08EBB0E945D018091E80063
:1025B00083FF0AC08091EB0080628093EB008091E2
:1025C000E800877F8093E8000F900F90CF91DF9114
:1025D0001F910F9108950895CF938EB38823A9F08A
:1025E0008091E9008F709091EC0090FF02C0C0E8EC
:1025F00001C0C0E0C82B1092E9008091E80083FF81
:1026000001C0DADECF70C093E900CF910895F99947
:10261000FECF92BD81BDF89A992780B50895262FE7
:10262000F999FECF92BD81BDF89A019700B40216C8
:1026300039F01FBA20BD0FB6F894FA9AF99A0FBE76
:062640000895F894FFCF9D
:102646004156524953505F4D4B3200800100810183
:102656000090010091010192011194012198030655
:102666009E0301A10100A4030001C0010001200096
:10267600333240206830222A3218242C354C081A6E
:10268600232333232323262636262626010101006B
:10269600000138391289AB45CDD888FF1289AB4580
:0426A600CDD888FF04
:00000001FF
